:020000040000FA
:1000000000080120ADDA0100B9E5030099DA01002A
:1000100099DA010099DA010099DA01000000000084
:1000200000000000000000000000000085DC01006E
:1000300099DA0100000000001DDC010099DA0100DE
:10004000A1DE01006B1A0400A1DE0100A1DE0100A7
:10005000A1DE01000B1C0400A1DE0100A1DE0100F5
:100060003B1A0400A1DE0100A1DE0100551A0400C4
:10007000A1DE0100A1DE0100A1DE0100A1DE010080
:10008000A1DE0100A1DE0100A1DE0100A1DE010070
:10009000A1DE010005030300A1DE0100A1DE0100D5
:1000A000A1DE0100A1DE0100A1DE0100A1DE010050
:1000B000A1DE0100A1DE0100A1DE0100A1DE010040
:1000C000A1DE0100A1DE0100A1DE0100A1DE010030
:1000D000A1DE0100A1DE0100A1DE0100A1DE010020
:1000E000A1DE0100A1DE0100A1DE0100A1DE010010
:1000F000A1DE0100A1DE0100A1DE0100A1DE010000
:100100007BB972B90029BEBF00204FF0004106E064
:1001100008BF00281CBF6FF000414FF0FF3000F017
:1001200057B8ADF1080C6DE904CE002909DB002BAE
:100130001ADB12F015FEDDF804E0DDE9022304B05D
:100140007047404261EB4101002B1BDB12F008FEBF
:10015000DDF804E0DDE9022304B0404261EB410137
:10016000524263EB43037047524263EB430312F086
:10017000F7FDDDF804E0DDE9022304B0404261EB65
:1001800041017047524263EB430312F0E9FDDDF891
:1001900004E0DDE9022304B0524263EB43037047FD
:1001A00053B94AB9002908BF00281CBF4FF0FF31DE
:1001B0004FF0FF3000F00CB8ADF1080C6DE904CE43
:1001C00012F0CEFDDDF804E0DDE9022304B0704753
:1001D000704700BF2DE9F14F03F11C0402EB840CC2
:1001E0004FEA930B8A68CB680868496800F046F9C3
:1001F0003CE9F0006040694072407B400BF1060E24
:100200004EE083EA134480EA134582EA134746BA74
:1002100096EA3444604000F00F1684EA063420F079
:100220000F1684EA161054BA94EA0106724002F0DE
:100230000F1486EA043622F00F1486EA14124CBA20
:100240006540694001F00F1485EA043521F00F1470
:1002500085EA14115CBA67407B4003F00F1487EA0B
:10026000043723F00F1487EA141344BA44404DBAFC
:100270004D4056BA56405FBA5F4087EA174886EA53
:10028000174B84EA17464FEA38488BEA1B4485EA45
:100290001B4788EA1B4580EA3440694072407B4036
:1002A00000F0703400F0803500F00F3040EA440078
:1002B00040EAD50080EA900404F0332480EA840008
:1002C000604001F0703401F0803501F00F3141EAF7
:1002D000440141EAD50181EA910404F0332481EA22
:1002E0008401614002F0703402F0803502F00F3278
:1002F00042EA440242EAD50282EA920404F033243C
:1003000082EA8402624003F0703403F0803503F027
:100310000F3343EA440343EAD50383EA930404F02A
:10032000332483EA84036340C943DB4381EA000446
:1003300083EA044686EA020183EA014382EA3345FE
:1003400083EA14435C4084EA00077FEA040A8AEAED
:10035000024A8AEA010B87EA11488AEA374A80EAA8
:10036000060181EA1A418AEA030A04EA0A004540C2
:1003700088EA040707EA0B0041408AEA0B0608EA0C
:10038000060084EA34428AEA3A4602EA0603584002
:100390004540414087EA37438BEA3B4003EA000986
:1003A00085EA090582EA0309464006EA0906714022
:1003B00085EA010005EA3546464006EA314181EA10
:1003C000304181EA364606EA304686EA3546344010
:1003D0000F4086EA010508EA050886EA3640024031
:1003E00088EA020881EA314213405C4080EA020355
:1003F00009EA030987EA0907674088EA040806EA68
:100400000A0601EA0B018AEA0B0425408AEA3A440B
:10041000204045408BEA3B4B02EA0B02564084EAFF
:100420000B04234059406E40694087EA364080EA19
:10043000384080EA060380EA104481EA134585EAE1
:10044000344585EA17427D4082EA354180EA05401D
:100450003CE9F0006040694072407B40BEF1010E13
:100460003FF6CFAE20BC00F05FF828606960AA605C
:10047000EB60BDE8F08F00BF00F000BA80EA101416
:1004800004F0F01480EA0410604081EA111404F0D2
:10049000F01481EA0411614082EA121404F0F014AD
:1004A00082EA0412624083EA131404F0F01483EA2F
:1004B0000413634080EA102404F47F4480EA04209B
:1004C000604081EA112404F47F4481EA0421614000
:1004D00082EA122404F47F4482EA0422624083EA1E
:1004E000132404F47F4483EA0423634081EA500424
:1004F00004F0553480EA4400614083EA520404F079
:10050000553482EA4402634082EA900404F03334B2
:1005100080EA8400624083EA910404F0333481EA83
:1005200084016340704700BF82EA900404F03334D2
:1005300080EA8400624083EA910404F0333481EA63
:100540008401634081EA500404F0553480EA440099
:10055000614083EA520404F0553482EA4402634065
:1005600080EA102404F47F4480EA0420604081EA99
:10057000112404F47F4481EA0421614082EA1224B8
:1005800004F47F4482EA0422624083EA132404F4E0
:100590007F4483EA0423634080EA101404F0F014DB
:1005A00080EA0410604081EA111404F0F01481EA3A
:1005B0000411614082EA121404F0F01482EA041279
:1005C000624083EA131404F0F01483EA04136340D6
:1005D000704700BF2DE9F14F94464FEA930B8A68AC
:1005E000CB6808684968FFF749FF0BF1060E33E056
:1005F00083EA134480EA134582EA134746BA96EA2F
:100600003444604000F00F1684EA063420F00F16E0
:1006100084EA161054BA94EA0106724002F00F14EC
:1006200086EA043622F00F1486EA14124CBA6540AA
:10063000694001F00F1485EA043521F00F1485EAB2
:1006400014115CBA67407B4003F00F1487EA04374B
:1006500023F00F1487EA1413BCE8F00060406940EF
:1006600072407B4000F0E03400F0103500F00F30B5
:1006700040EA540040EAC50080EA900404F03324C4
:1006800080EA8400604001F0E03401F0103501F0B0
:100690000F3141EA540141EAC50181EA910404F0B5
:1006A000332481EA8401614002F0E03402F0103525
:1006B00002F00F3242EA540242EAC50282EA920490
:1006C00004F0332482EA8402624003F0E03403F051
:1006D000103503F00F3343EA540343EAC50383EABA
:1006E000930404F0332483EA8403634081EA3247AD
:1006F00087EA134581EA354690EA060484EA034B0B
:1007000082EA1B4280EA044484EA054483EA144AEC
:1007100085EA14448BEA044B84EA374481EA0B41AE
:1007200081EA164104EA0A00454082EA04082BEAFD
:10073000080041408AEA0B0602EA060084EA3443D4
:100740008AEA3A4603EA060778404540414088EA8B
:1007500038478BEA3B4007EA000985EA090583EA46
:100760000709464006EA0906714085EA010005EAE4
:100770003546464006EA314181EA304181EA364653
:1007800006EA304686EA3546344008EA010886EA39
:1007900001052A4086EA364003405A4081EA314347
:1007A0001F407C4080EA030709EA070988EA090834
:1007B000544088EA020806EA0A0601EA0B018AEABE
:1007C0000B0215408AEA3A42104045408BEA3B4012
:1007D00003405E404240174079404D404E40E44364
:1007E000F64386EA18435D4085EA054083EA1343F1
:1007F00086EA034183EA384284EA114383EA0443E8
:100800005FEA3343BEF1010E3FF6F2AE1ED4BCE800
:10081000F0006040694072407B4020BCFFF784FEDE
:1008200028606960AA60EB60BDE8F08F2DE9E041C7
:100830004FF2F00280EA1031114080EA0130484066
:1008400041088208C3084FF0000E4FE700F0113056
:1008500001F0113102F0113203F0113340EA41008E
:1008600040EA820040EAC3004FF2F00280EA103111
:10087000114080EA01304840BDE8E0812DE9F04FA9
:1008800002F11C050646074600EB850851F8040BEB
:10089000043A46F8040BF9D14FF0010CFFF7C6FFFC
:1008A0005FEA302080EA0C001ECF41404A405340AE
:1008B0005C401EC62000464517D04FEA4C0C1CF485
:1008C000807F18BFACF1E50C2C2DE7D03C2D06D174
:1008D000FFF7ACFF06CF41404A4006C6100006CFE6
:1008E00041404A4006C61000D8E736E90F00FFF73E
:1008F000C5FD043D86E80F00F7D1BDE8F08F00BFCD
:1009000070B491E87800B2E802105B1854EB0C0464
:10091000B2E802104D4156EB0C0680E878008041A9
:10092000013070BC704700BF70B491E87800B2E845
:1009300002105B1A74EB0C04B2E802108D4176EBE6
:100940000C0680E878008041404270BC704700BFD0
:100950002DE9F00791E80017C0CAA8FB063440F85B
:10096000043BA9FB0615E8FB6741EAFB665140F82A
:10097000044BA9FB0743ECFB661344CAE8FB625433
:10098000EAFB6714ECFB673440F8045BA9FB0275D3
:10099000EAFB6235ECFB6245E8FB6617E9FB66376C
:1009A000EAFB6647ECFB6657BAC0BDE8F007704744
:1009B0002DE9F00791E8F807B2E802105B1854EB54
:1009C0000C04B2E802104D4156EB0C06B2E80210DE
:1009D0004F4158EB0C08B2E8021059EB01095AEBF1
:1009E0000C0A80E8F80780410130BDE8F007704745
:1009F0002DE9F00791E8F807B2E802105B1A74EBF2
:100A00000C04B2E802108D4176EB0C06B2E802103D
:100A10008F4178EB0C08B2E8021079EB01097AEB10
:100A20000C0A80E8F80780414042BDE8F0077047B3
:100A30002DE9F007524290E87800B1E880071740AE
:100A4000DB1918EA020854EB080419EA020955EB0D
:100A500009051AEA020A56EB0A0678C090E87800FF
:100A6000B1E8800717407B4118EA020854EB0804FC
:100A700019EA020955EB09051AEA020A56EB0A06B9
:100A800078C080410130BDE8F00770472DE9F007DC
:100A9000524290E87800B1E880071740DB1B18EA63
:100AA000020874EB080419EA020975EB09051AEA51
:100AB000020A76EB0A0678C090E87800B1E8800771
:100AC0001740BB4118EA020874EB080419EA02094E
:100AD00075EB09051AEA020A76EB0A0678C080412E
:100AE0004042BDE8F00770472DE9F00152424FF057
:100AF000040890E8300091E8C000A31B1340E41AFA
:100B0000F618EB1B1340ED1AFF1830C0C0C1B8F146
:100B10000108EED1BDE8F001704700BF00B592E8D2
:100B2000DC072DE9DC07B1E8805702B4A7FB0251CE
:100B30000A95A8FB020BE7FB6310E9FB62B00B917F
:100B4000A8FB0351EAFB6201E7FB64B5E7FB66051E
:100B5000E8FB6615CDF830B0A9FB03B6EAFB6316D7
:100B6000ECFB6356E8FB640BE9FB641BEAFB645B8C
:100B7000ECFB646B0D90ACFB0230059CEEFB62500D
:100B8000E9FB6460EAFB64B0E7FB6431E8FB6451B5
:100B9000069CE8FB6461E9FB64B1EAFB64010E9327
:100BA000A7FB0432079CE7FB6462E8FB64B2E9FB45
:100BB0006402EAFB6412049CE9FB6453EAFB64638D
:100BC000089CE7FB64B3E8FB6403E9FB6413EAFBFE
:100BD00064230F955DF8049B99E80006DDF800801A
:100BE000A9FB0854EAFB68B4DDF81080ECFB68044C
:100BF000EEFB6814E9FB6824EAFB6834DDF8048046
:100C0000EEFB6865E9FB68B5EAFB6805DDF8148072
:100C1000ECFB6815EEFB6825E9FB6835EAFB6845E7
:100C20000F96DDF80880AEFB0876E9FB6806EAFB64
:100C30006816DDF81880ECFB6826EEFB6836E9FBE9
:100C40006846EAFB6856DDF80C80ECFB68B7EEFB03
:100C50006807E9FB6817EAFB6827DDF81C80ECFBF6
:100C60006837EEFB6847E9FB6857EAFB686708B03E
:100C700000BD00BF2DE9F14F87B0FFF74FFFDDF852
:100C80001C8008F1200888E8FF00FFBC87E87F0887
:100C9000BDE8F08F00B591E89857A3FB035201958A
:100CA000A3FB0401E3FB6420E3FB67100292A3FBB8
:100CB0000752E3FB6802E4FB6415E3FB6805E3FB12
:100CC00069250391A4FB07B6E3FB6926E3FB6A569B
:100CD000E4FB670BE4FB682BE3FB6A5BE3FB6C6BF9
:100CE0000490A4FB0810E4FB6950E3FB6C60E3FB99
:100CF0006EB0E7FB6721E4FB6951E4FB6A61E3FB4B
:100D00006EB1E4FB6E010592A7FB0832E4FB6A6258
:100D1000E4FB6CB2E4FB6E02E7FB6E12E7FB685388
:100D2000E7FB6963E4FB6CB3E7FB6C03E7FB6E1363
:100D3000E8FB6E230695A7FB0954E7FB6AB4E7FBC3
:100D40006C04E8FB6C14E8FB6E24E9FB6E34E8FBF2
:100D50006865E7FB6AB5E8FB6A05E8FB6C15E9FB2B
:100D60006C25E9FB6E35EAFB6E450796A8FB097614
:100D7000E8FB6A06E9FB6A16E9FB6C26EAFB6C36BF
:100D8000EAFB6E46ECFB6E56E8FB69B7E9FB6907C8
:100D9000E9FB6A17EAFB6A27EAFB6C37ECFB6C4756
:100DA000ECFB6E57EEFB6E6700BD00BF2DE9F14F07
:100DB00087B0FFF76FFFDDF81C8008F1200888E896
:100DC000FF00FFBC87E87F08BDE8F08F30B44FF02C
:100DD000000310F8014B11F8015B013A84EA0504A5
:100DE00043EA0403F5D1A3F101034FEAD37030BC09
:100DF000704700BF4FF0000310F8012B013943EAA0
:100E00000203F9D1A3F101034FEAD370704700BF89
:100E100030B411F8014B12F8015B6C4000F8014B43
:100E2000013BF6D130BC70472DE9F00791E8F80797
:100E3000B2E802105B1854EB0C04B2E802104D410A
:100E400056EB0C06B2E802104F4158EB0C08B2E822
:100E5000021059EB01095AEB0C0A4FF0260261EB24
:100E6000010122EA01015B1854F1000455F100056B
:100E700056F1000657F1000758F1000859F1000932
:100E80005AF1000A61EB010122EA01010B4480E8FA
:100E9000F807BDE8F00770472DE9F00791E8F8077B
:100EA000B2E802105B1A74EB0C04B2E802108D4138
:100EB00076EB0C06B2E802108F4178EB0C08B2E832
:100EC000021079EB01097AEB0C0A4FF0260261EB74
:100ED000010102EA01015B1A74F1000475F10005D9
:100EE00076F1000677F1000778F1000879F1000942
:100EF0007AF1000A61EB010102EA0101A3EB0103AF
:100F000080E8F807BDE8F007704700BF2DE9F14F12
:100F100087B0FFF703FE4FF0260CBDE800034FF04B
:100F2000000AE0FB0C8AE1FB6C9A03BCE2FB6CA0BC
:100F3000E3FB6C010CBCE4FB6C12E5FB6C23BDE82D
:100F40001040E6FB6C34E7FB6CB40CFB04F418EBCC
:100F5000040459F100055AF1000650F1000751F15F
:100F6000000852F1000953F1000A5BF1000B60EB3D
:100F700000002CEA000004448EE8F00FBDE8F08F7A
:100F80002DE9F14F87B0FFF785FEC4E72DE9F003A7
:100F900091E8F8134FF4EE31BF390022E3FB6123EF
:100FA000E4FB6134E5FB6145E6FB6156E7FB616705
:100FB000E8FB6178E9FB6189ECFB619C4FF026015D
:100FC00001FB0CFC12EB0C0253F1000354F1000482
:100FD00055F1000556F1000657F1000758F10008D9
:100FE00059F100096CEB0C0C21EA0C010A4480E871
:100FF000FC03BDE8F00370472DE9F00390E8F81317
:101000004FEAEC7202F013022CF0004C02F11301D3
:10101000591854F1000155F1000156F1000157F142
:10102000000158F1000159F100015CF100014FEAA3
:10103000E17101F0130111445B1854F1000455F102
:10104000000556F1000657F1000758F1000859F164
:1010500000094CF1000C2CF0004C80E8F813BDE8BE
:10106000F00370472DE9F14FF8C892E8005E19EBE4
:1010700003095AEB040A5BEB050B5CEB060C4EEB29
:10108000070E91E8E001A9FB0502AAFB0543E9FB75
:101090006624EAFB6634A9FB0765E9FB6845B1E80D
:1010A0000003EBFB6836ECFB6846EEFB6856ABFBD7
:1010B0000987ECFB6957EEFB696791E80202EAFBDE
:1010C0006148EBFB6158ECFB6168EEFB61784FF027
:1010D0000001EAFB0951EBFB6961ECFB6971EEFB76
:1010E00069814FF4A03C4FEA154949EA06495FF08F
:1010F000000AE9FB0C0A4FEA164646EA0746E6FBF9
:101100006C2A4FEA174747EA0847E7FB6C3A4FEA71
:10111000184848EA0148E8FB6C4AADB25544AF08AC
:1011200005F0030507EB8707C01952F1000153F1E1
:10113000000254F1000345F1000420BC1FC5BDE8C6
:10114000F08F00BF30B490E83C10511D53F1000106
:1011500054F1000155F100014CF100014FEA9101F9
:10116000494201F00501521853F1000354F1000403
:1011700055F100054CF1000C0CF0030C80E83C101C
:1011800030BC70472DE9F04F90E8F00F00F14000BF
:101190004FF0040E59E0F0B4826BC36B0468052570
:1011A000242687593C444FEA724787EAF24787EA88
:1011B00092273C4442684FEAF21787EAB24787EA2F
:1011C000D2073C4440F8044B032D08BF6FF01B06C8
:1011D00087593A444FEA734787EAF34787EA9327E8
:1011E0003A4443684FEAF31787EAB34787EAD307DD
:1011F0003A4440F8042B87593B444FEA744787EA46
:10120000F44787EA94273B4444684FEAF41787EA97
:10121000B44787EAD4073B4440F8043B013DC0D1C2
:10122000A0F13C00076A3C444FEA724787EAF24764
:1012300087EA92273C4402684FEAF21787EAB247EE
:1012400087EAD2073C44C463F0BC4FF0020288EA4C
:10125000781C8CEAF84C0BEBBC1C8AEA090303EA05
:10126000080383EA0A039C4450F8043B9C4451F869
:10127000043B9C44674444EA050B0BEA060B04EA72
:1012800005034BEA030BE34484EAF42383EA345373
:101290000BEBB30B87EA771C8CEAF74C0AEBBC1C10
:1012A00089EA080303EA070383EA09039C4450F828
:1012B000043B9C4451F8043B9C4466444BEA040ABA
:1012C0000AEA050A0BEA04034AEA030AE2448BEA43
:1012D000FB2383EA3B530AEBB30A86EA761C8CEACB
:1012E000F64C09EBBC1C88EA070303EA060383EA11
:1012F00008039C4450F8043B9C4451F8043B9C4434
:1013000065444AEA0B0909EA04090AEA0B0349EAB7
:101310000309E1448AEAFA2383EA3A5309EBB30961
:1013200085EA751C8CEAF54C08EBBC1C87EA0603C1
:1013300003EA050383EA07039C4450F8043B9C44FA
:1013400051F8043B9C44644449EA0A0808EA0B0843
:1013500009EA0A0348EA0308E04489EAF92383EA30
:10136000395308EBB30884EA741C8CEAF44C07EB9D
:10137000BC1C86EA050303EA040383EA06039C44D3
:1013800050F8043B9C4451F8043B9C44E34448EA35
:10139000090707EA0A0708EA090347EA0307674457
:1013A00088EAF82383EA385307EBB3078BEA7B1C00
:1013B0008CEAFB4C06EBBC1C85EA040303EA0B0336
:1013C00083EA05039C4450F8043B9C4451F8043BD9
:1013D0009C44E24447EA080606EA090607EA0803CD
:1013E00046EA0306664487EAF72383EA375306EBA7
:1013F000B3068AEA7A1C8CEAFA4C05EBBC1C84EA38
:101400000B0303EA0A0383EA04039C4450F8043BF9
:101410009C4451F8043B9C44E14446EA070505EA34
:10142000080506EA070345EA0305654486EAF6234C
:1014300083EA365305EBB30589EA791C8CEAF94C4B
:1014400004EBBC1C8BEA0A0303EA090383EA0B03DF
:101450009C4450F8043B9C4451F8043B9C44E044B9
:1014600045EA060404EA070405EA060344EA03041D
:10147000644485EAF52383EA355304EBB304013A67
:101480007FF4E5AEA0F14000BEF1010E7FF483AE23
:10149000A0F1400C9CE80F00001949199219DB19C2
:1014A000ACE80F009CE80F004044494452445B44C0
:1014B000ACE80F00BDE8F08F2DE9F04FB0E8FE0773
:1014C00083B02DE9010790E8005F4FF00A00069015
:1014D0000198DB199CEA030C18EB3C4897EA0807D3
:1014E00013EB375393EA3C4C18EB3C6898EA3757B8
:1014F00024189EEA040E19EB3E4990EA090014EB09
:10150000305494EA3E4E19EB3E6999EA3050CDE9E9
:101510000489DDE9028949199AEA010A18EB3A4877
:1015200095EA080511EB355191EA3A4A18EB3A6809
:1015300098EA355592199BEA020B19EB3B4996EA5A
:10154000090612EB365292EA3B4B19EB3B6999EADA
:10155000365613EB706393EA3B6B18EB3B4898EA03
:10156000706013EB305393EA3B4B5FEA3B6B18EB35
:101570000B0898EA30505FEA706014EB756494EAE7
:101580003C6C19EB3C4999EA756514EB355494EAC7
:101590003C4C5FEA3C6C19EB0C0999EA35555FEA63
:1015A0007565CDE90289DDE9048911EB766191EA7F
:1015B0003E6E18EB3E4898EA766611EB365191EA9A
:1015C0003E4E5FEA3E6E18EB0E0898EA36565FEA2A
:1015D000766612EB776292EA3A6A19EB3A4999EA2F
:1015E000776712EB375292EA3A4A5FEA3A6A19EBA6
:1015F0000A0999EA37575FEA776701900698013838
:101600007FF465AF01BC80E8005FBDE8000700E93A
:10161000FE0703B0BDE8F08F2DE9F047A74D86B077
:10162000EA7B0023CDE902338DF80E206A7D8DF828
:101630001020AA7D2B788DF81120EA7D8DF80930D5
:101640008DF812206B782A7E8DF80A308DF81320E1
:10165000AB786A7E8DF80B308DF81420EB7895F816
:1016600026208DF80C30C41D2B798DF80D300746DF
:101670000E4624F007040AB18DF80F30002E08BF83
:10168000204602A918BF002000F034FD95F8008024
:101690006B784FF0000A984404445FFA88F8D1460A
:1016A0005FFA8AF34345C0F0F7800334002E24F03C
:1016B000030449460CBF2046002000F00DFFA97826
:1016C000044479B1EB78EA7BE01C20F00304002E9F
:1016D0001A4408BF20466B89D2B218BF002000F020
:1016E0006FFF044495F827308BB1697A79B195F88A
:1016F0002830E01C002B20F0030414BFFF22252219
:10170000002E0CBF2046002001F04AF80444297B3B
:1017100081B1AB7823B995F827305BB16B7A4BB1C7
:10172000E01D20F00704002E0CBF2046002009F029
:1017300027FC0444624B1B6863B1297951B1E01C5A
:1017400020F00304002E08BF20466A7B18BF00204B
:10175000984704445B4B1B6853B1A97B41B1E01C23
:1017600020F00304002E0CBF2046002098470444BC
:10177000554BD3F80080B8F1000F0FD0E97B69B169
:10178000E01CAB7C009320F00304002E08BF204631
:101790006B7C2A7C18BF0020C047044495F8263093
:1017A0006BB1297959B1E01C20F00304002E08BF69
:1017B00020462A7D18BF002001F014F80444E87F79
:1017C00068B16B7EA97D033424F0070444F004045F
:1017D000194422463346C9B201F044F8044495F84E
:1017E0002010002962D0E01D20F00708002E4FF0E5
:1017F000FB020CBF4046002012F039FB08EB00044E
:101800001EB9FB2140460DF081F9A97E00294FD079
:10181000AB7F002B4CD0E01D20F00708002E4FF4CA
:101820008C720CBF4046002012F021FB08EB000434
:101830002B7EA97DA87F033424F0070444F0040420
:10184000194422463346C9B200F0FEFF04442EB9C3
:10185000A97E4FF48A7240460DF07AF9EB6A13B113
:1018600006B9EC62283495F8241089B1E01D20F007
:101870000705002E42F210720CBF2846002012F01D
:10188000F6FA2C1826B942F2107128460DF066F9C6
:10189000E01B06B0BDE8F0872B7AEA79A979687970
:1018A00012F0B7FA0AF1010A8144F9E68846A7E77F
:1018B000002ED3D1324631463046CDE7C80B00204A
:1018C000540000205C000020580000208FB572B644
:1018D000194B1D6BE5B9BFF34F8F1849184BCA68F8
:1018E00002F4E0621343CB60BFF34F8F00BFFDE70C
:1018F000B4FBF6F4DAB20133002CF9D102F1100393
:101900006B440A2603F80C4C32B901A8A847E2E759
:10191000044600230A26EDE7531E04AC54FA83F470
:10192000DAB2C3B2B3FBF6F706FB1733303304F871
:101930000C3CB0FBF6F0E7E7C80B002000ED00E040
:101940000400FA051FB5164C237A8DF80930E379A7
:101950008DF80830A379ADF80C3002A86379ADF8A2
:101960000A3007F01BFF18B1B5210320FFF7AEFFC7
:10197000012301A88DF8043013F0E4FB08B1B9216C
:10198000F3E7A07C07F03AFF08B1BC21EDE7607CEB
:1019900007F02EFF08B1BD21E7E704B010BD00BF7E
:1019A000C80B002038B50546002842D010F0CEFD07
:1019B00010B94FF0FF3038BD0DF0E8FBB0F5FA7FFD
:1019C000F7D81E4C1E482563002500F04BFA26224E
:1019D0002946204684F8345084F8355084F827503E
:1019E00084F82850E56284F8265011F089F81B220B
:1019F000627140F21B32E28040F2023240F2011387
:101A000022811F222380628101234FF40272A3707E
:101A1000A281237544F60112FB232282A3836384EF
:101A2000EFF3108472B600F03DFF2CB962B6204689
:101A3000C1E76FF01500BEE72846BCE7C80B0020E1
:101A40004519000010B5002840F0A680554C94F8C8
:101A50003430002B40F09D80A1B1002A6DD00139B7
:101A6000142900F29980DFE801F00B191C2C545C5A
:101A700075325F6270383E4B507A7D8B8E9182005A
:101A80001378237001210020FFF7C6FDB0F5803FD9
:101A900080F28580012384F8353010BD137863709F
:101AA000F0E79378002B48D0D378002B45D01378FB
:101AB0001A2B42D953781A2B3FD91368C4F8053032
:101AC000E0E71378E278934237D3A370DAE713782C
:101AD000A278934231D8E370D4E71378A278934286
:101AE0002BD8E373CEE713783BB35378013BDBB2DB
:101AF000F82B22D8138823822B4B92789A70C1E757
:101B00001078E0740AF062FFBCE71378ABB123757C
:101B1000B8E7137894F827200AB1012B0DD9637226
:101B2000B0E713886381ADE713782371AAE794F8CF
:101B30002610137821B9012B04D86FF01500ACE7FB
:101B4000002BFAD0137863739CE71378082BF4D832
:101B5000A37397E71388FF2BEFD8237392E71378CB
:101B600063758FE713780E2BE7D8A3758AE71368A0
:101B70000E49C4F81A3053684B6013890B8181E712
:101B80001378E3757EE7137863767BE71378237623
:101B900078E74FF0FF3080E76FF02C007DE76FF0C3
:101BA0000B007AE7C80B0020D80B0020E20B0020C6
:101BB00070B50D460646F0B1E9B111F007041AD12F
:101BC00000F08CF8D0B1304610F06CFD0D4E21467F
:101BD00086F836002846FFF71FFD14F057FF96F8E9
:101BE0003600F16A07F084FEFFF7ACFE012386F8A9
:101BF0003430204670BD6FF01500FBE74FF0FF302A
:101C0000F8E700BFC80B002010B5084C94F834303A
:101C10002BB107F089FE94F8360010F05FFD12F04A
:101C20006DFA002084F8340010BD00BFC80B0020FE
:101C300050B1074B03F1140253F8041B40F8041B86
:101C40009342F9D1002070476FF01500704700BF34
:101C5000D2D20400074B93F8352010B532B993F86F
:101C600034401CB907F00EFE204610BD4FF0FF3087
:101C7000FBE700BFC80B0020074B93F8352010B5D9
:101C800032B993F834401CB907F010FE204610BD5D
:101C90004FF0FF30FBE700BFC80B0020074B93F865
:101CA000352010B532B993F834401CB907F0ACFDBB
:101CB000204610BD4FF0FF30FBE700BFC80B0020EF
:101CC00007C8024B83E8070000207047000C002083
:101CD000014B9B68184700BF000C0020024B98681E
:101CE000003818BF01207047000C002073B52E4D3E
:101CF000031D04462B60284608F0DEFB022806463A
:101D000006D12949204611F0A8F9304602B070BD2D
:101D1000042842D12B78092B0AD0252B1ED0294626
:101D2000204611F0FFF9B0F5817F2DD3722112E02A
:101D300005213E2011F064F90028F0D1EB782A79D2
:101D400001A943EA02236846ADF8003011F0F1FD25
:101D50000028D0D053210820FFF7B8FD1A213E20DB
:101D600011F04EF90028DAD16B68C3F30F23ADF8F8
:101D700004306946112301A88DF8063011F003FEE6
:101D80000028B8D06521E6E70028B4D0A1782078F3
:101D900011F036F90028B8D1ADE70828B5D10249CD
:101DA000204611F089F9B0E70C0C0020074B4FF0EA
:101DB000FF3141F6FF72C3E9001205490022C1E973
:101DC00000221F21C3E90212704700BF000000205B
:101DD000100D00203F280CD801380B4BC0F34212E5
:101DE00000F01F0053F8223023FA00F000F0010049
:101DF0007047FF2806D04038C0F34212034B00F072
:101E00001F00EFE70120704700000020100D0020A8
:101E10000146074B006849681A4603C240F48C2209
:101E20001A6041F0107242F4FF625A60704700BFBE
:101E3000000000200246024B0068516803C370474F
:101E4000080000200138064BC0F3421203EB820366
:101E500000F01F009B6823FA00F000F001007047BB
:101E600000000020014B1860704700BF180D0020D3
:101E700010B5FFF79BFF12F0F5FB034B1B68044600
:101E800003B19847204610BD180D00200B8802882A
:101E9000F0B5C3F30E049EB204F11803C57CC35A17
:101EA00005352A442B4497B213FA82F3013B42884A
:101EB000B3FBF7F313FB07439BB29A42044A93BF69
:101EC00022EA0603324013439BB20B80F0BD00BFF1
:101ED0000080FFFF10B5114B00EB41041A786389B5
:101EE000B3FBF2F303FB0223013A1A44B2F5706F1D
:101EF000027928BF00231A448378B2FBF3F0194417
:101F000003FB1020091AB1FBF3F003FB1013134479
:101F10006FEA43436FEA5343638110BD1C0D0020F9
:101F200010B5124BE0B15A78022A04D040F2591190
:101F30001720FFF7CBFC03225A70026812F007014A
:101F400002D04FF4AF71F3E75C685A60224402603C
:101F50009A60BDE81040302203F10C0010F0D0BDB3
:101F600001225A70C3E9010010BD00BF1C0D002002
:101F70002DE9F041254E96F801E00EF0FD0CBCF184
:101F8000010F04D040F273111720FFF79FFC91F866
:101F90000680B8F1080F02D940F27511F4E7CF7945
:101FA00097B34546022D726838BF02257B1D5C0041
:101FB00002EB43036A1E13446D422B408D88454457
:101FC000013DC8F100022A404FF6FE75AA4202D92F
:101FD0004FF4C071D8E7BEF1030F12D106EB8000B9
:101FE0001C1BC56815B140F28511CDE7C460A77010
:101FF000228084F803C0087A09682071080CE08008
:10200000218107FB02337360BDE8F0811C0D0020C5
:102010002DE9F047364C6378012B65D0032B04D0B3
:1020200040F295111720FFF751FCD4E901329A4292
:1020300002D04FF4CC71F5E72546002305F80C3BA0
:102040001E460B22994655F82200013A58B190F8E5
:1020500004808178B8F1FF0F2FD180F804908E4270
:102060003CBFCEB20123511CEDD103B126700B262B
:1020700040F6FF6955F826709FBB013EFAD2042353
:1020800063700020BDE8F08755F82CE0BEF1000F2A
:1020900006D09EF804A0C24504BF9EF802E0774433
:1020A0000CF1FF3CBCF1000FEEDA3944FF2907D9EF
:1020B00003B126704FF49A71B4E794460027F1E714
:1020C0000771CCE707EB41033846A3F80A90FFF706
:1020D00001FF08F10108BB785FFA88F18B42F1D863
:1020E000CBE74FF00008F6E7022360686370C9E7AA
:1020F0001C0D00202DE9FF474A788B781344FF2BF5
:1021000006460C4604D940F2AB111720FFF7DEFB60
:102110000B78934202D940F2AF11F6E7DFF8D48191
:10212000009038B198F80130022B02D00020FFF760
:10213000E1FF6846FFF7F4FE00276F4A63780192DB
:1021400008254FF45A7201A93846ADF808208DF8D9
:102150000B308DF80A508DF80C70FFF709FF674AB5
:10216000A378019201A94FF47A720120ADF80820FA
:102170008DF80B308DF80A508DF80C70FFF7F8FED3
:102180005F4AE37801924FF0FF094FF4AC7201A966
:102190000220ADF808208DF80B308DF80A508DF82C
:1021A0000C90FFF7E5FE574A2379019201A990228E
:1021B0000320ADF808208DF80B308DF80A508DF80B
:1021C0000C90FFF7D5FE63794F4A01928DF80B30E2
:1021D000A822012301A90420ADF808208DF80C30B5
:1021E0008DF80A50FFF7C4FEA379484A0192CDE961
:1021F00002778DF80A508DF80B308DF80C901BB1DA
:102200000AF0D8FBADF8080001A90520FFF7B0FEE1
:102210003F4AE3790192082580224FF0FF0901A986
:102220000620ADF808208DF80B308DF80C908DF855
:102230000A50FFF79DFE237A364A01928DF80B3043
:102240007822022301A90720ADF808208DF80C3070
:102250008DF80A50FFF78CFE2F4A637A019200270F
:102260004FF40A7201A92846ADF808208DF80B300A
:102270008DF80A508DF80C70FFF77AFE274AA37A82
:10228000019201A94FF48C720920ADF80820DFF803
:1022900090A08DF80B308DF80C908DF80A504FF40B
:1022A0008879FFF765FEE37A8DF80B3001A90A20E3
:1022B000CDF804A0ADF808908DF80A508DF80C7098
:1022C000FFF756FE237B8DF80B3001A90B20CDF8CC
:1022D00004A0ADF808908DF80A508DF80C70FFF747
:1022E00047FEFFF795FED8F80400801B04B0BDE858
:1022F000F08700BF1C0D0020A56801002D680100BB
:10230000D15E000047690100D9C90000396A0100A7
:10231000496A0100F189000059890000458A0000DE
:10232000ED8A0000034B03EB8003D86800B180788E
:10233000704700BF1C0D0020F8B54FF6FF730380F7
:10234000184B03EB81030546D868B8B1867803794A
:10235000B3FBF6F206FB1233DBB219460A1D00EBA3
:102360004202B2F902705488002F09DB0131B1FB3F
:10237000F6F206FB1211C9B28B42EFD10020F8BD74
:10238000FF29FBD0C4F30E03C4782B8024B940F29C
:10239000C7211720FFF79AFA5380BDE8F84011F0E3
:1023A00017BD00BF1C0D00201E4B03EB810370B551
:1023B000DC6805464CB3B0F5706F04D340F2D5210C
:1023C0001720FFF783FA0146204611F0E3FCFF28AF
:1023D000014604D02046BDE8704011F0F9BCA07859
:1023E000B5FBF0F300FB1353DBB219460A1D04EBF7
:1023F0004206B6F90260002E09DB0131B1FBF0F2B2
:1024000000FB1211C9B28B42F0D1002070BDFF2930
:10241000FBD08B4204EB42021CBF0023E3705580CB
:10242000D8E700BF1C0D0020094B03EB810310B55A
:10243000DC680146204611F0ADFCFF28014604D0BF
:102440002046BDE8104011F0C3BC002010BD00BF05
:102450001C0D00200F4B03EB810370B5DC680146B7
:102460000646204611F096FCFF28054610D001468E
:10247000204611F0ADFCE2882389014643EA02437D
:102480003046984720462946FFF724FD002070BDBE
:102490000320FCE71C0D002038B50E4B827903EBBE
:1024A00082030446D86808B9022038BD8278E179F1
:1024B0009142F9D24B1CE37100EB41035D89B3F902
:1024C0000A30002BF3DBA58011F082FC2060002095
:1024D000EBE700BF1C0D002070B5044610F00300B0
:1024E0000E4603D049211820FFF7F0F911F0F6FB52
:1024F000054624B103483146046011F0EFFB28463D
:1025000070BD00BF580D00202DE9F04F1E4C85B066
:1025100092462268BDF83CB098468146BDF83830F6
:102520000D461AB95B211820FFF7D0F91A460A2187
:102530005046039311F07DFA5A460646092140465B
:1025400011F077FA31180746206811F0F2FB039B6F
:10255000C9F8000018B9286005B0BDE8F08F8419EB
:102560002C60D9F800000093524631460A2311F03E
:1025700012FA2868CDF838B009234246394605B02A
:10258000BDE8F04F11F007BA580D002070B50E46A7
:10259000044611F057FA0546304611F053FA044B41
:1025A0002A1821461868BDE8704011F0ECBB00BF46
:1025B000580D0020014B186811F0AEBB580D0020DB
:1025C000F8B511441D4EC9B210F00305317003D0A7
:1025D0004E210920FFF77AF91F2B19D89B009BB2D7
:1025E000033323F003039BB208B17060338101EB26
:1025F00081047668E2004FF0010C00EBC404EFB2F6
:10260000B94212D8D01D03FB010020F00700F8BD2D
:10261000FF2B4FEA430204D9FF339342DFDB93B22F
:10262000DEE77C2AFBDC7C23DAE710B186F800C009
:102630007460013528361C44E1E700BF5C0D0020C2
:1026400038B5144A147853680021C8B2844203D8BC
:10265000A9210920FFF73AF91846013105782833F6
:10266000002DF2D001241289447000214468817049
:102670008161C161920800F12001051D21F8022B42
:10268000994245F8044B1444F8D100234361037088
:1026900038BD00BF5C0D00200A4B1B89B3F5FF7FDE
:1026A0004FEA930006D25A089B1A9BB2984238BF51
:1026B00018467047B3F5EE6F01D8FF22F4E740F2F9
:1026C0007263F3E75C0D00202DE9F8434B788046F8
:1026D0000C4602F0040602F0FB07D3B1DFB12F4B2A
:1026E000D4F804901D89BFBB01236370AD08A761B6
:1026F000E76104F120034A46211D04F1280023F874
:10270000025B984241F8042B2A44F8D1002363610C
:1027100001E0002FE3D0002E4FF0FF0318BF022688
:10272000A370A3191B7D032B03D1022F1CBF0136FD
:10273000F6B2A31901221A7506F10C0204EB860603
:10274000002324F812307268A370C8F80020A8F89B
:1027500004304046BDE8F883002114226170A018BF
:1027600010F0CEF9B5F5FF7F0FD26B08ED1AADB2C0
:1027700009EB0502C4F804902584A2606384C4F8C0
:102780000C90A5842261E384C5E7B5F5EE6F4FF0A8
:10279000FF03EBD940F27265EAE700BF5C0D002051
:1027A0002DE9F7431FFA82F81FFA81F904460F4614
:1027B00016462E214A46404611F03BF905465CB1CB
:1027C0002E230146CDF800904246204611F0E3F852
:1027D000034B1C601F715E71284603B0BDE8F08397
:1027E000680D00202DE9F74305460C46F72005212A
:1027F000904611F01EF9064685B115F0030703D087
:102800008F211920FFF762F8DFF83890C9F81050CF
:10281000A9F81400A5B2BBB29D4204D806FB04F08F
:1028200003B0BDE8F083B9F814C0D9F81000CDF8B2
:10283000008007FB0C000523F722314611F0ABF8AE
:102840000137E8E7780D002007B5CDE900230B46F6
:1028500003490246081D11F02BFC03B05DF804FB90
:10286000900D002013B5064CCDE900230B4602461F
:1028700004F1080104F10C0011F01AFC02B010BDC3
:10288000900D0020024B0146D3E9002011F07BBAE5
:10289000900D0020024B0146D3E9022011F073BADB
:1028A000900D0020134B012200214FF0FF309A6061
:1028B000C3F80012C3F80803C3F80015C3F80425D1
:1028C0009A60C3F80803C3F80015C3F804250A4941
:1028D0000A4A03F580334FF40040C3F80825C1F8D5
:1028E0008000BFF34F8FBFF36F8FC1F88001C3F833
:1028F0000825704700F0004000E100E00000F63FCE
:102900008C46382300B50CF8033B054B8E4607CBAD
:10291000CEF80300CCF80410CCF808205DF804FBD6
:10292000AC0D002070B5234DE96AAC6A0B7803F05A
:102930000303032B04F1A8041AD16B8E2A8E012005
:10294000034342F400626B8620746B6B2A869847BF
:10295000E96A237E013B18BF012323764B7833B10C
:10296000D4E92232013342F10002C4E9223270BDBF
:10297000002BEED04B78002BEBD02A8E42F4006275
:102980002A86AA6B002AF2D0FB2B08D895F83C3097
:1029900063B16B6B0021BDE870402020184795F8AB
:1029A0003D3043F0100385F83D3070BD01230370C6
:1029B000CFE700BFA00D002010B5114C0AF0CAFEF1
:1029C0000AF0B2F9636B208E00219847237E4BB941
:1029D000236C94F83D1094F83E009847002384F847
:1029E000443010BD94E8070004F10C0383E80700AD
:1029F0000449022204F1190013F0FAF9E8E700BFD4
:102A0000A00D002001290000034B93F8443003B9C6
:102A10007047FFF7D1BF00BFA00D0020012923D8C8
:102A200038B51C4DAB6C04469847D8B195F83D308D
:102A3000C3B995F8240010B11CB1002038BD012C99
:102A4000FCD195F84C30DC06C3F300110ED5002301
:102A5000AA6B92B1C0B16A8E920715D5AB6DDB78C7
:102A6000022BEAD0012038BD012070472B6D1B7866
:102A7000C3F30013C3F10103EAE7B5F85420002AB9
:102A8000E8D00029EED0E5E7002BEBD16A8E002AD2
:102A9000D3D0E7E7A00D002008B5094B93F84420F8
:102AA000022A07D1DA7A42F00102DA72BDE8084060
:102AB000FFF782BF40F23D212720FEF707FF00BF4E
:102AC000A00D0020F8B5254CA66A236DE36296F8A8
:102AD000CB30054606F1A80794F85C000BB1043032
:102AE000C0B296F871100DB9FF282ED00AF08EFBF7
:102AF00097F823301BB3206E0BF058FA94F824306B
:102B0000216EE06A003B18BF012384F88030D7E9CA
:102B10002223C4E91E230AF0B3F83DB996F87100E8
:102B200010F00C0018BF28200BF0AAFA96F87010CD
:102B300000200BF00DFB022384F84430F8BDE06A5E
:102B40000BF034FA0AF0F0F8E7E796F870209142BB
:102B5000D0D00AF05BFB97F82330CBE7A00D002024
:102B600070B57F4CA56A82B095F8CB20002305F1A3
:102B7000A8068DF8053094F85C300AB10433DBB256
:102B800010B9FF2B00F0B28095F87010FF200AF00A
:102B90003DFBB37D032B00F2DE80DFE803F0021D76
:102BA000807094F8C230ADF806306E48A5F86030F9
:102BB00006F098FF002840F0A180D4F8C4000DF181
:102BC00005020DF1060110F05FFFA06520B196F837
:102BD0006130002B00F0A9806348A065F37DDB0025
:102BE00003F00802037803F0F3031343327E9200EC
:102BF00002F00402134303F0EF0203F00303032B7C
:102C0000027002D1C378022B12D0D4F8C40010F0A5
:102C1000A6FF48B9A06D027802F00303032B07D08A
:102C200006F086FF002879D1A06D027842F01002EC
:102C3000027096F8223013B14378002B43D10BF089
:102C4000B5F90AF071F8A66D07F0D8FD20B1337818
:102C500003F00303032B64D095F8711001200BF0EF
:102C600077FAA36D414A18889978A4F84C0001239B
:102C700084F8C830917084F8443002B070BD39488F
:102C800006F030FF002861D0A06DC3781B2BA5D1C2
:102C9000012105F110000AF0EFFAA06D9EE7B5F8EA
:102CA0006030D4F8C400ADF806300DF105020DF126
:102CB000060110F0E9FEA06500288FD140F2D62170
:102CC0002720FEF703FE206E0BF070F994F8241015
:102CD000206ED6E92023B1FA81F67609A16D84F839
:102CE0008060C4E91E2309F0CBFFACE795F8713092
:102CF00095F870108B427FF449AF4AE7638EA16D5F
:102D0000626B43F08003802063869047A06D0121B1
:102D10007174C3781B2B7FF461AFBAE7A06D0278A2
:102D200086E701200CF0D2F996E79DF805302BB12B
:102D3000BDF8061013F017F8A06D4FE703808370FD
:102D4000A06D012112F03FFFA06DF1E740F2DF21FD
:102D50002720FEF7BBFD4FF43B712720FEF7B6FDA1
:102D6000A00D0020F80D0020300E0020EC0D0020FA
:102D70002DE9F041434C94F84420A56A012A82B021
:102D800006460F4605F1A8055FFA82F874D12B7C40
:102D90006BB1638E002143F0040363862974636B77
:102DA0000420984794F824300BB185F81280A16D67
:102DB0000A7802F00302032A36D04B78EBB10223E3
:102DC000AB7595F82330F3B1A36A93F87110D5E988
:102DD0002223C4E91E2394F8243094F85C20003B9D
:102DE00018BF0123013984F8803007293FD8DFE874
:102DF00001F03B133E113E3E3E380123AB7595F882
:102E00002330002BE0D106B907BB02B0BDE8F0418A
:102E1000FFF7D2BD4FF00308002300931A49434641
:102E2000012009F0B5FEEEE7AB7D63B9638E43F098
:102E3000020363860220636B9847A16D0B7803F051
:102E40000303032BB9D10323AB75BAE731463046F0
:102E5000FFF7E4FD0028D8D102B0BDE8F041FFF74C
:102E600031BE4FF00208D7E74FF00008D4E740F238
:102E7000B9310620FEF72AFD40F25C412720FEF71B
:102E800025FD00BFA00D0020080E002070B50C4BE2
:102E90000C4C0D4A1A6094F8443063B906460D464E
:102EA00003F0FF02012104F19000227612F08BFE64
:102EB0002665256670BDDF212720FEF707FD00BFD0
:102EC00060000020A00D002080370000044A92F826
:102ED000443003F0FF000BB9107670470C207047A8
:102EE000A00D0020024B012283F83C20704700BF58
:102EF000A00D00202DE9F043BA4C85B002AD85E865
:102F0000030094F844100C98002940F0D481002A62
:102F100000F0D181002B00F0CE81002800F0CB81A1
:102F200001F0FF06206495E80300A36404F1240384
:102F300083E80300A56A626384F83C6084F83D601E
:102F400084F8C96084F83E6084F8C8606686268686
:102F50000AF0F2F909F0E8FE95F974000AF00CFBAA
:102F600005F1A807A86A0BF005F8286A0AF00AFB21
:102F700097F833000AF010FB94F82430002B69D046
:102F800004200FF073FEEA6941F64B539A4294BF56
:102F90004D2096200AF00EF9A36A93F8D832002B40
:102FA00040F01C8195F8711001200AF0E5FC002822
:102FB00063D08D4B18680AF0E3FF6B69C4F8C43026
:102FC000AB69C4F8CC3095F87F301BB9A96F0029E4
:102FD00040F0C380D7F89000D7F89410D7F8982025
:102FE000D7F89C30DFF804C2ACE80F00D7F8A03067
:102FF000C4F88130D7F8A430CCF80D30A36A94F827
:10300000241093F8C520A2F12600002938D1012808
:1030100003D993F8C600262838D193F81A2393F8D9
:103020007080002A40D0B8F1080F3DD0B8F1040FED
:1030300000F02681082A00F02381042A00F0208174
:10304000B8F1010F30D0012A14BF4FF002084FF041
:10305000010829E003200FF009FEEA6941F64B530D
:103060009A4294BF4D2096200AF0A4F895F870106B
:1030700000200AF081FC00289BD105B0BDE8F08358
:1030800001287BD993F8C600262877D0213A012A57
:1030900040F2CC80242800F0E78093F87080B8F1EB
:1030A000040F08BF4FF0080805F1380941464846AB
:1030B00012F05CFF414612F0F9F9B5F8443095F88A
:1030C00071100246934228BF1346484684F8C23026
:1030D00012F012FF95F8711097F82390B5F84C8014
:1030E000082908BF042112F0E1F9B9F1000F01D15C
:1030F000043080B2404528BF40465FFA80F884F82B
:10310000D08007F07BFB20B1B8F12B0F38BF4FF018
:103110002B0894F8241084F85C80002957D197F884
:103120002230002B3AD0012384F88030D7E92023C5
:10313000C4E91E2395F87030E86941F64B52013B13
:10314000904294BF04200020072B00F29C80DFE80F
:1031500003F01E9F9A1D9A9A9AA1B7F84E20BB8A37
:1031600093427FF437AFB5F87C201344A7F84E3074
:1031700095F87E0001220BF08DFF2BE793F8B62324
:1031800093F87080002A7FF44EAF8DE70321002270
:103190000B4600921549FB2209F0FAFC0120FFF7CB
:1031A000DFFC134BD3F8503523F00803032B00F05A
:1031B00087800023C4E90033A3602A88B98A97F87E
:1031C000333061802280237105B0BDE8F08397F829
:1031D00023307BB90120FFF775FCE2E70AF09AF88B
:1031E000E0E600BFA00D002060000020080E0020D7
:1031F00000100040D7E9220195F871300122013B0F
:10320000C4E91E0184F88020072B3CD8DFE803F0D6
:1032100005443B043B3B3B460326002100913346DB
:103220002A494246012009F0B3FCD3E724281BD0E9
:1032300000293FF432AF93F86E2193F87080500765
:103240001ED412F001032BD193077FF52DAFB8F1F7
:10325000080F3FF429AFB8F1040F11D0B8F1010FF6
:1032600018BF4FF002081FE700293FF416AF93F88C
:10327000691093F86E2193F870800A405107E0D5E9
:103280004FF0080810E740F2B9310620FEF71EFBA8
:1032900001217CE702217AE70126BEE70226BCE78E
:1032A000B8F1080F3FF400AFB8F1040F14BF98460F
:1032B0004FF00808F8E64FF4A8712720FEF706FB48
:1032C0004FF4FD712720FEF701FB00BF080E002020
:1032D00010B5184C94F84430EBB194F824308BB10D
:1032E00094F84430022B20D1A36AD3F8F0020AF0FC
:1032F00095FEA16A91F87F3003F0FF020BB98B6F46
:1033000063B910BD94F84430012BF2D040F20F2184
:103310002720FEF7DBFAFFF74FFBEAE791F87E0084
:10332000BDE8104011460BF0B5BE40F21321272036
:10333000FEF7CCFAA00D0020FFF73EBB014B18763C
:10334000704700BFA00D0020014B93F8C8007047E4
:10335000A00D0020024B188EC0F38020704700BFE4
:10336000A00D0020014B93F8C9007047A00D00206C
:103370002DE9F0411E4FBC6A820782B005460E4619
:1033800004F1A80411D4EB070CD5D4E92232217E34
:10339000013342F100020129C4E922320CBF0023AB
:1033A0000123237602B0BDE8F081BB6BDBB1B7F837
:1033B0005420F96A1846033291F801800FF028FB77
:1033C0000DF1020201A9F862D7F8CC0010F07CFCE4
:1033D000019810F063FC012230604146D7F8CC0020
:1033E00010F008FCCFE740F24D412720FEF76EFABF
:1033F000A00D00202DE9F047B24C86B00023CDE9A6
:1034000004338DF80F3094F84430A56A022B064639
:103410000F4605F1A8055FFA83F840F0A281238EDC
:1034200013F0400106D1636B40209847238E43F090
:1034300040032386002E5AD095F82330002B40F00D
:103440001881D4F82CA09AF8011089B2A4F854106D
:10345000002940F025810023A3639AF80000238E01
:10346000E97DC0F3800243F480739142238600F02B
:10347000CC80A26A94F8241002F1A80999F81620C9
:10348000EAB1022A00F05381002389F8163021B1F5
:1034900099F81220002A40F03F8199F81130002B52
:1034A00040F0168199F81730D4F82CA0012B0CBFEE
:1034B0000023012389F817309AF80000238E43F483
:1034C000806222862A7EC0F3C0039A424FF0000930
:1034D00000F0A28007F092F9C0B19AF8003003F032
:1034E0000303032B12D101200BF0F0FD0EE095F841
:1034F0002320002A40F0B98043F40073238694F817
:10350000C930013384F8C9304FF0000995F82230F2
:103510005BB394F82430A26AB3FA83F3D06992F8CB
:1035200070105B0984F8803041F64B53984294BF89
:1035300004200020D5E920230139C4E91E230729EE
:1035400000F2E280DFE811F08E000800E0008B005E
:10355000E000E000E0000A004FF0010800220092C5
:1035600059494346FB2209F013FB47B994F8C910A7
:103570000120FFF753FA0746002800F099800AF06F
:1035800055FE01279DF80F307BBBB9F1000F08D025
:1035900094F82430002B59D1B4F809300133A4F841
:1035A00009303EB3B4F8053000220133A4F80530E9
:1035B00084F8C920454807F021FC049840B110F078
:1035C0006DFBA16A002343720822013012F0FEFB5A
:1035D000059B33B1A16A00221A720598102212F0DD
:1035E000F5FB6FB906B0BDE8F08705A90220FFF72B
:1035F000BFFECAE7B4F807300133A4F80730D9E7B3
:10360000FFF7DAF906B0BDE8F0872A7EC0F3C00301
:103610009A42B1467FF45EAF07F0F0F800284AD036
:10362000D4F82CA09AF8003003F00303013B012BDF
:1036300041D89AF8012094F8D0309A423BD994F8B6
:103640003D3043F0100384F83D3043E7B4F80530D3
:10365000B4F80710AA8A0B431343A2D09CE74FF09B
:1036600003087BE74FF0000878E709F0C7FB238EDB
:1036700042E709F089FB09F06BFBD4F82CA09AF81B
:10368000011000287FF4E1AE002942D09AF8003002
:103690002A7EC3F3C0039A425DD089B2A4F85410C5
:1036A000D4F8CC0010F07CFAD4F82CA0A063D4E6B7
:1036B000FFF756FA66E70DF10F00FFF733F9D4F87C
:1036C0002CA007E7A00D0020080E0020C40D00204C
:1036D0004FF0000A89F811A006F014FA00284AD029
:1036E000638E43F0080363865146636B0820984756
:1036F000D9F880300133C9F88030D9F8843043F1EB
:103700000003C9F88430CDE640F2B9310620FEF757
:10371000DDF8A4F854109EE689F812301946638E3D
:1037200043F0100363861020636B9847B5E6D4F826
:10373000C40004A910F0CBF9C0B1D9F8803094F8D6
:1037400024100133C9F88030D9F8843043F10003E4
:10375000C9F8843098E6012384F83E30FFF72CF94D
:1037600040E740F2CF412720FEF7B0F840F2CB31DE
:103770002720FEF7ABF840F2E2312720FEF7A6F84B
:10378000992A0000F5330000712D0000092A00007D
:103790000B46062203F8032BB0F809C0C27AA1F841
:1037A00003C09A70704700BF06230B70D0F80F302B
:1037B0001A88A1F8032093F8CD304B71024B5B6857
:1037C00000229A67704700BFB41600200B461722EC
:1037D00003F8032BD0F809C0D0F80D20C1F803C0BE
:1037E0005A60704710B5392301F8033B00F1090313
:1037F0002930D3F800E0D3F804C09A68DC68CC60C4
:1038000010338342C1F800E0C1F804C08A6001F1BE
:103810001001EED11B880B8010BD00BF124B134A64
:1038200033F8113003F2E733A2FB0323082900F138
:10383000FF324FEA93134FEAC2120FD0042907D088
:10384000022914BFF0216021134401FB00307047AE
:1038500040F2BE21134401FB003070474FF4D261A7
:10386000134401FB0030704764410400D34D6210E3
:1038700030B5D928844628BF4FF0D90C0CF1300C54
:10388000BDF80C401FFA8CFCBCF1FF0F28BF4FF0B5
:10389000FF0C04F0020514F00104864638D1002D17
:1038A00064D001F5A570082A00F01481042A00F004
:1038B000C580022A14BF4FF414714FF4967101446D
:1038C00012F00C0F40D1082A00F00C81042A00F0FD
:1038D0000C81022A14BF4FF4B070B4209C31014413
:1038E00001F19800B4BB002B00F0AC80082A00F076
:1038F0003C81042A00F09981022A40F6480308BF5F
:103900004FF48563BEF1D90F184400F2428130BDF7
:1039100001F5A570002DC6D1002B42D1082A00F078
:103920001C81042A00F09C81022A00F0B7810CF16E
:10393000050C1FFA8CFC282108250CFB051C12F035
:103940000C0F0CEB0001BED001F6144101F1980000
:10395000002CC8D0082A00F0C180042A00F0C880DA
:10396000022A14BFC0236423184430BD01F5A5709A
:103970002BB3082A00F04381042A00F07981022A3F
:1039800040F6480308BF4FF48563BEF1D90F1844D1
:10399000BDD9AEF1D903C5499BB2F63381FB0341D2
:1039A000FEE0082A00F0D680042A00F03B81022ABB
:1039B00040F6480114BF8C464FF4856CBFE7082AD7
:1039C00000F01181042A00F05B81022A00F00481DA
:1039D0000CF1050C1FFA8CFC282408230CFB034C6B
:1039E000BEF1D90F604492D9B149AEF1D90E1FFA98
:1039F0008EFEA1FB0E31AEEB010301EB5301042A55
:103A0000C1F3C71146D1C1EB4113C1EBC303AEEB08
:103A1000030341F208329BB202FB0100002B3FF48A
:103A200076AF03F1080292B205324FF4BF74102151
:103A300000F5A57302FB0142D01830BD40F2CE5113
:103A400001443DE77346F12B28BFF123082A53D0E8
:103A5000042A00F0FE80022A00F01A8113339BB280
:103A600028214FF0080C03FB0C13BEF1D90F1844AA
:103A70007FF64DAF8E49AEF1D90E1FFA8EFEA1FB37
:103A80000E31AEEB010301EB5301042AC1F3C71160
:103A900000F09280C1EB4113C1EBC303022AAEEBED
:103AA000030E40F6921540F272541FFA8EF318BFBF
:103AB0002C4604FB01000CBF18242824002B3FF4E3
:103AC00026AF0833022A9BB203F105020CBF042182
:103AD0000821ADE741F2D0210144F1E64FF4CA6379
:103AE000184442E74FF43560F8E640F2EE30F5E670
:103AF00040F2AE23184438E713339BB200EB831037
:103B0000BEF1D90F00F5C8707FF601AF684AAEF17B
:103B1000D90E1FFA8EFEA2FB0E32AEEB020302EBB1
:103B20005302C2F3C712C2EB4213C2EBC303AEEBA4
:103B3000030E44F2DA311FFA8EF301FB0200002B70
:103B40003FF4E5AE03F1080292B205324FF4C874B7
:103B500040216DE744F2902CF1E60CF1050C1FFAC0
:103B60008CFC4FF4C8714025E7E601F58640BEF1B4
:103B7000D90F00F128007FF6CAAEAEF1D9024B4B47
:103B800092B2F63283FB02131344DB1144F2DA31B2
:103B90000FE0AEF1D901454B89B2F63183FB014309
:103BA0000B4440F6921440F27251DB11022A18BF06
:103BB000214601FB030030BDC1EB4113C1EBC30340
:103BC000AEEB030E41F208321FFA8EF302FB010046
:103BD000002B7FF426AF30BD0CF1050C1FFA8CFCD6
:103BE00018240423FAE60CF1050C1FFA8CFC00EBF8
:103BF0008C13BEF1D90F03F5C87087D887E644F25D
:103C0000DA32BEF1D90F01EB02007FF680AEAEF1E1
:103C1000D901264B89B2F63183FB01430B44DB11FA
:103C20001146C6E741F2BE1C89E601F59250BEF18D
:103C3000D90F00F116007FF66AAEAEF1D9021B4B28
:103C400092B2F63283FB02131344DB1141F20831C6
:103C5000AFE713339BB24FF4BF714FF0100C02E784
:103C60000CF1050C1FFA8CFC4FF4BF71102564E6B3
:103C700041F20832BEF1D90F01EB0200C7D830BDC6
:103C80000CF1050C1FFA8CFC4FF4BF741023A5E651
:103C900013339BB218214FF0040CE4E60CF1050C31
:103CA0001FFA8CFC1821042547E600BFC9F9A98436
:103CB00091F3530900B5082983B040D0042935D0C9
:103CC000022945D0053328214FF0080E90F805C091
:103CD00003FB0E1E90F844100CF1FF3007283CD86F
:103CE000DFE800F02A333B043B3B3B044FF0020C7F
:103CF000D301CA330EFB02321D4B9A4232D81D4803
:103D000001F03F01A0FB023241F040010020C2F36C
:103D1000073361F30700C2F3071262F30F2043EA8F
:103D20004C1363F3174003B05DF804FB05334FF405
:103D3000BF714FF0100EC9E74FF0000CD8E7053304
:103D40004FF4C8714FF0400EC0E74FF0010CCFE7C1
:103D5000053318214FF0040EB8E740F2EF2106209A
:103D6000FDF7B4FD40F28C712D20FDF7AFFD00BFD3
:103D7000C3BF0300898888882DE9F043314ED6F807
:103D800000C0DCF80F300B624FF000089CF81530D3
:103D900062F3070862F30F2815469CF814201B04F1
:103DA00043EA02239CF8132013438B6283B0074637
:103DB000BCF819000C4611F0D8FB3368E06181466D
:103DC0004946987D11F0DEFB336820864946B3F8FA
:103DD000170011F0EAFB3368E062B3F81B20A284FD
:103DE000B3F81D20E28493F8242002F01F0284F827
:103DF000D920D3F81F00009093F823308DF80430B9
:103E0000694604F1CD0011F027FC336893F82430A3
:103E1000A4F870805B0984F8D932FF2315F00C0FE9
:103E200014BF0121002104F1380084F8723006F03B
:103E30003FFC97F91410204611F080FB03B0BDE859
:103E4000F08300BF740E0020F8B544888C46054608
:103E500014F00401134618BF05F177016246C07FD4
:103E600006F01CF8C207044606D4A30712D484F057
:103E70000400C0F38000F8BD012385F86830E87FB6
:103E800006F070F80368C5F869308388A5F86D30CE
:103E9000A307ECD5084E0127306885F8767005F148
:103EA000770111F0B7FC3068394611F0C3FC84F09B
:103EB0000400C0F38000F8BD740E00200B461322EE
:103EC00070B503F8032B0C4600F10902293016687F
:103ED00055689168D2F80CC0C3F80CC01032824209
:103EE0001E605D60996003F11003F0D112781A70C2
:103EF000A6880125A57129463046FEF795FA48B1F6
:103F0000E27842B1008805F0ADFD29463046FEF763
:103F1000A1FA20B970BDBDE8704012F0AFBC40F20C
:103F200042212D20FDF7D2FC1323F7B50B7000239F
:103F3000CB7083691A888A80054601228A71D86904
:103F40000C4611F0FFFAAB6960839A8CA283DA8C7D
:103F5000E28393F8D92284F82020FF2284F82120DC
:103F60006A69128962845A7A012A04F10E012ED1FB
:103F7000DA7B02F0C002402A29D1D3F80A20C4F823
:103F80000E20DB898B80154B5868436D6361B0F858
:103F900058302383AF69BE78E67100230622694654
:103FA00054300093ADF804300EF0CCFC10B146F064
:103FB0000206E671D7F80330A360B7F80730A38193
:103FC000A86940B103B0BDE8F04012F057BC00232F
:103FD000C4F80E30D6E703B0F0BD00BFB416002021
:103FE00070B504460D46C869164611F0ABFAAB8CA5
:103FF000A4F8A630EB8CA4F8A830A4F8A400A37F02
:1040000095F8D92284F8AA201BB194F86830012BC6
:1040100024D00022C4F89820A4F89C201F4B1B68D1
:104020001A78C2F3801284F89120082ED3F8032066
:1040300023D0C4F89E20B3F80730A4F8A23004F1CE
:10404000920204F19101304605F0F8FE08B394F8AD
:10405000913043F0020384F8913070BD94F86E30D3
:1040600003F0C003402BD4D1D4F86920B4F86D30EC
:10407000C4F89820A4F89C30D0E7C4F89220B3F894
:104080000710A4F896100023C4F89E30A4F8A230BC
:1040900070BD40F64A412D20FDF718FC740E00203B
:1040A0000B46162203F8032BD0F80920C1F8032091
:1040B000CA7890F80DC083F804C01AB130F8AC3C4F
:1040C0001B0700D5704710B5B1F805400121204607
:1040D000FEF7AAF938B1008805F0C4FC012120469A
:1040E000FEF7B8F900B910BD40F286212D20FDF78A
:1040F000EDFB00BF2DE9F0438A4D8B4AAB6A87B0D8
:104100005B680292894A03920026894A6E710446CE
:1041100080F8816002A8CDE904232E82AE60AE71E2
:1041200009F02EFF09F008F909F0F8FF08F0BAFCD1
:10413000804809F027FA804809F01CFF04F1300795
:1041400030460EF093FD384602F0AEFC384602F0E1
:10415000B1FC09F021FA2179252009F057F894F9EA
:10416000140009F009FA2179304609F005FCE860ED
:1041700028B901232B71002007B0BDE8F08304F1BA
:104180005001E06C0FF003FF04F158010646E06CAB
:104190000FF024FF07463EB194F82480B8F1000FD9
:1041A00002D04FF0010903E0002F5CD1B846B946B8
:1041B000A37F13B9638859071BD5D4E918236FF07F
:1041C00000418B4208BFB2F1FF3F54D012F0A0FF74
:1041D000D4E91823904271EB03034CD341460122EA
:1041E0002046FFF731FE00284FD1B9F1000F40F013
:1041F0009480002E08BF3E4694F88330002B71D186
:10420000002E6FD12868033005F036FE6388A8744D
:10421000DB07B0D50023266ACDE900330122FF2356
:104220008DF8062085F8203006F10A076846FEF76B
:1042300033F900289FD1009CA642F7D0727A607AA9
:104240003B4604F10A0111F034F80028EED0A378BF
:1042500085F82030D4F80320C5F82120374BB4F876
:1042600007209A8087E794F82580B8F1000918BFE5
:104270004FF001099CE7B9F1000FBAD001221146B5
:104280002046FFF7E1FD002847D005F0D1FD80462C
:1042900012F03EFF4FEA4813B3EB08034FEAD8622F
:1042A00062F10002520242EAD3525B0213EB0803AE
:1042B00042F1000C4FEA8C1E9A014EEA936ED31A1B
:1042C0006EEB0C0213EB080342F100021B1842EBE9
:1042D0000101C4E91831002E08BF3E4694F883302E
:1042E000002B8DD06388DA068CD4666CC6F30B265F
:1042F00006F08AFAC0F30B039E42F9D094F84630D8
:1043000084F84500C0F3032123F00F030B43002280
:1043100084F8463084F8832074E740F614212D2079
:10432000FDF7D4FA740E0020F9570000F95300008D
:10433000B1500000D6BE898E55555500950E00200F
:104340002DE9F047032984B00446164640D090F882
:10435000803023B10025284604B0BDE8F087052948
:1043600067D0464F97F812804FF00109B8F1000F5F
:1043700039D13378082B70D0396894F86F2011F850
:10438000030B04F17003C0F3801010F092FF396842
:10439000054611F8030BC0F3801010F0B5FF8246FC
:1043A00005F0F2FD0746002830D13378082B4FD0B6
:1043B000002D34D063885907CDD4002FCAD1B8F16D
:1043C000000F53D1637D0BB14B45C3D10125C2E72B
:1043D00043889A07BED5294F97F812804FF00209FB
:1043E000B8F1000FC5D010F099FF0828307034D014
:1043F00002AA0DF1070105F021FD002838D09DF833
:10440000070002A912F00DF98046B2E7BAF1080FD1
:1044100013D13378082B1BD00027002DCAD1E57F9C
:10442000ED1A6388B5FA85F559074FEA551592D408
:10443000C3E74388DB0794D48CE7504605F0C8FCFB
:1044400033780028E6D1082B84D0002DB2D1E6E7DE
:10445000638858073FF57FAFB1E7396811F8030B60
:10446000C0F3801012F0DDF8804685E7454672E71C
:1044700040F63D712D20FDF729FA00BF740E002093
:1044800070B51A4904460222843011F09FFC184985
:10449000022204F1BC0011F099FCB4F88E6094F88B
:1044A0008D5005F05DFA80B9637C227884F8B820DD
:1044B000A4F8B96084F8B7509BB90E4984F8BB30B2
:1044C000022204F1AE0011F081FC0B4B0B4A1B6879
:1044D0000021117143B1206A21460222BDE87040DB
:1044E000184794F84830E8E770BD00BFBD3E0000B3
:1044F00091370000A14000006C000020740E0020E5
:104500002DE9F04FB0F802A08DB01AF00303074672
:104510000491934604D0012B02D0022B40F09383E8
:104520000AF00702052A4FF0000500F0BB80022ABE
:104530001BD0002A40F02982BBF1000F40F091828D
:10454000B7F85420944E0AF023010A4300F0808308
:104550001AF020040ED13A7912F00C0F0CBF012290
:10456000002202924FF0010908E0BBF1000F40F079
:104570005A82894E00244FF0010902941AF0400833
:1045800040F0D881CDF80490029A306862F30005BB
:1045900064F34105019A69F3C30562F304154FF012
:1045A000000A68F34515A0F800A0BBF1000F40F029
:1045B000A781DA460721059311F003F9002303933D
:1045C000059B64004FEA48181946306811F06DFAEF
:1045D000029B3068039A234343EAC909019B49EAD5
:1045E000031949EA080848EA8A1A25F07B050AF007
:1045F0007B0A4AEA050A514611F05EFA1AF0010FE9
:1046000055465FFA8AF440F0BA80A1070ED5049BA4
:104610003068002B00F0AD8107F1770106230122FD
:1046200011F019FA3068012111F004F914F00403B3
:1046300040F05C83220700F14581A30600F1AE80C3
:10464000BBF1010F40D0019B63F30415A906ECB246
:1046500000F14F81620613D5BBF1000F00F09B8281
:104660007D7997F8441097F91420284610F0BAFF86
:1046700001238DF818000622306806A911F0EBF925
:10468000F06948B1403012F087F928B1F36993F826
:10469000BD30002B40F04A82230600F122830DB08A
:1046A000BDE8F08FBBF1000F3FF463AF01243A4E39
:1046B00002944FF000081AF0400A40F0BE81CDF895
:1046C00004A04FF001095FE7B7F85430002BBAD0CF
:1046D0007B889C07B7D4306811F0E3F9B7F8542011
:1046E000348A431CDBB2141BC3F1FF018C42A8BF08
:1046F000DC43E4B2A24280461FFA84F940F20C8205
:104700007B88D80700F108824AF01005039A3068C8
:104710002946033C11F0D0F9E4B208F10403234424
:10472000B7F848205FFA83F8F3681344B7F84021DC
:104730001A4492B207F1690107F1360010F0A4FFA4
:104740007A7987F84400082A00F0C481042A00F02E
:10475000C182022A00F0B7824FEAC803013A5033FF
:1047600000F03F00072A00F26782DFE812F06A02D9
:1047700065026502B901650265026502B90130682A
:1047800007F169010623002211F065F997F8681016
:10479000306811F046F838E7740E0020F469D7F855
:1047A0004031D7F844910293002C00F0FB8104F1D2
:1047B0004008226E636E05924046049312F0ECF8B6
:1047C000DDE9043268B1F16991F8BD1049B14046A4
:1047D000CDE9042312F032F9DDE90423002800F0CA
:1047E0002682206F94F810C0B649DDF808E031F851
:1047F0001C10D6F814C01CEB0E0849F10009B2EBEE
:104800000808B14A01F2E73163EB0909A2FB013163
:10481000D7F83431890911EB0808A3EB0C0C49F1E6
:1048200000094FEAEC73C44573EB09034FF0000233
:104830009DF81D3080F2D68062F38613B8F5161FFE
:104840008DF81D3079F10003C0F2B0819DF81D3064
:1048500062F345138DF81D30BDF81C306FF30C0367
:10486000ADF81C30994BA3FB0030800AADF81E0058
:10487000E27E9DF8243062F30403D4F817200892F6
:104880008DF8243005F0BAF89DF8243060F3471312
:104890008DF824309DF81D306FF3C7138DF81D304F
:1048A0002268B4F85230CDF8252022798DF82920DD
:1048B00062798DF82A200133A2798DF82B20ADF88A
:1048C0002C30BDE67A6C3068C2F30B2262F30B0326
:1048D00097F84620ADF81C301209C3F3072362F3A2
:1048E00007138DF81D300322022307A911F0B3F836
:1048F000A3E630681223052207A911F0ACF8A9E657
:1049000064004FEA48180721039310F05AFFF0693A
:10491000039B68B1403012F03FF8039B40B1F2694D
:1049200092F8BD20002A0CBF00220A2203924BE617
:10493000039049E6B7F85420002A58D03A7912F08B
:104940000C0F0CBF4FF0010A4FF0000A029A3068BA
:10495000CDF8049062F3000564F3410569F3C305E3
:1049600069F304154FF000086AF38615A0F800807B
:1049700020E607F170010623012211F06CF897F888
:104980006F10306810F056FF50E6012A7FD0062ADB
:104990003FF488AE042A40F0AE81BBF1000F00F076
:1049A0001E814B4EB06930B14030019311F0F4FFDD
:1049B000019B804648B9F069002800F063814030CF
:1049C000019311F0E9FF019B80463A7912F00C0F38
:1049D0000CBF002401241AF0200F0CBF2246002235
:1049E000029268E623F060038DF81D3034E77A8880
:1049F00002F02302002AA1D1B06930B14030019306
:104A000011F0CAFF019B002898D1F06930B1403005
:104A1000019311F0C1FF019B00288FD1002B8DD194
:104A20004FF0010A92E74FF0000801221AF0400A05
:104A3000274E029244463FF442AE029A306842F05A
:104A4000480545EA440545EA481500224FF0010AA9
:104A500064004FEA481805F06B0502800192D146C8
:104A600051E71B4EB06908B34030019311F094FF39
:104A7000019B8046D0B11AF0200440F0AD803A7915
:104A800012F00C0F14BF01220022029213E6BBF1B8
:104A9000000F40F0C28091463A790D4EA2F1020219
:104AA000B2FA82F2520902925C4667E5F069002888
:104AB00000F0B1804030019311F06EFF019B804601
:104AC000D9E700BF64410400D34D62105917B7D134
:104AD000740E00204FEA881303F5347300F03F0092
:104AE0000221874A03F5A573A2FB03231A0B42EAAE
:104AF000411240F040001B098DF818008DF81A2073
:104B00008DF8193030680323042206A910F0A3FFA2
:104B100001231FFA84F90193396D3068224610F0A1
:104B2000FFFF338A9944A6F810908CE5072130687E
:104B300010F0B0FF0922322302704370F36971490B
:104B4000D3F890308370F369D3F89020120AC270C2
:104B5000F369B3F892300371F36993F893304371BA
:104B6000F36993F8A1308371F369D3F89420A1FB22
:104B70000232920AC271F369D3F89830A1FB032381
:104B80009B0A0372F369604AD3F89C30A2FB0323AB
:104B9000DB08437280E507F130003D7902F02EF822
:104BA000014660E5B469D4E918231AE6B8F5703F08
:104BB00079F100039DF81D3027DB43F020038DF8C9
:104BC0001D304FF49671BDF81C30B8FBF1F868F356
:104BD0000C03ADF81C3045E6002402946BE5B7F8F1
:104BE00054204A4E0AF023010A4355D01AF0200FF0
:104BF0003A7949D012F00C0F4FF000020CBF01249B
:104C0000002402924FF00109B8E462F345138DF8D5
:104C10001D301E21D7E780462DE73A793B4E023AF8
:104C200018BF01224FF000080292444643E5206F6E
:104C3000821843F10003D5E540F2EF210620FCF78E
:104C400045FE00214DE740F276612D20FCF73EFE47
:104C5000B06938B14030019311F09EFE019B0028ED
:104C60007FF476ACF06938B14030019311F094FED6
:104C7000019B00287FF46CAC4FF0000901224C46E8
:104C800002927BE48046A0E612F00C0F0CBF0122DA
:104C9000002202921446B5E7B06930B1403001936A
:104CA00011F07AFE019B0028A0D1F06930B14030AC
:104CB000019311F071FE019B002897D101244FF060
:104CC000000902945AE44FEA88032C3300F03F00B5
:104CD000012106E74FEA081303F5E77300F03F00F0
:104CE000FEE640F6C3012D20FCF7F0FD40F65E0124
:104CF0002D20FCF7EBFD40F219712D20FCF7E6FDAD
:104D0000898888885917B7D1D34D6210740E002056
:104D10002DE9F047044684B090F844000D4608F0B1
:104D20003BFC6179FF2008F071FAA5B98C4D286829
:104D300010F045FD2779064604F1300001F04CFFE4
:104D4000082F5DD0042F00F00081022F7DD00536A2
:104D50002821082358E0002062794FF4A57109F05A
:104D6000D1F86388980743D5D4F85890B4F85C809C
:104D7000C3F3801600277A4D28684FF0000AA0F888
:104D800000A0072110F01DFD2868514610F08DFE8F
:104D9000FB0043EA861739462868524610F08CFE1D
:104DA000390700F1B480286810F0D0FE2B8AC0F1DA
:104DB000FE00A8EB03068642B4BFF6B2C6B2334487
:104DC000984556DC63885A0643D4298A28683246B7
:104DD000494410F0A5FE288A06442E82286809F06E
:104DE000E5F8072201232A716B7104B0BDE8F08752
:104DF000D4F85090B4F85480C3F380160127BAE772
:104E000005364FF4C871402306FB0316EB68628831
:104E100003EBC011CA3100FB06111607696102D508
:104E2000AB68194469616279002008F0F1FE00283E
:104E300000F0908063889B0740F0828094F87610A1
:104E400001222046FFF75CFBC8E705361821042342
:104E5000DAE794F9142094F84410607910F0C2FB5A
:104E600001238DF808000622286802A910F0F3FD3E
:104E7000ABE747F010010022286810F01DFE2868FB
:104E800010F064FE2E8AC0F1FE00A8EB06088045F3
:104E9000A8BFC6B22868B8BF5FFA88F610F001FE56
:104EA000B4F84830EA681A44B4F840311A44074666
:104EB00004F1690192B204F1360010F0E5FBBB1970
:104EC0000133617984F84400DBB201222046FEF709
:104ED000F1FE8DF80C00C0F30723C0F307408DF8F6
:104EE0000E008DF80D30039BADF808301B0C8DF8CB
:104EF0000A30029BADF8043004221B0C8DF80630FA
:104F0000286803230DEB020110F0A5FD5AE7636C3E
:104F10002868C3F30B22BDF80C3062F30B0394F83E
:104F20004620ADF80C301209C3F3072362F30713D0
:104F30008DF80D300322022303A910F08CFD32E717
:104F40006179012009F004F978E705364FF4BF7163
:104F5000102359E740F6B2512D20FCF7B7FC00BFF3
:104F6000740E0020F0B51F4D0446002383B030308E
:104F70002B826B7101F030FE6688F1062DD4B207EA
:104F800021794CBFB4F85C70B4F85470FEF746FC5D
:104F900000960146627901233846FEF769FCB4F8B1
:104FA0004820AB680132A4F848200344AB6005F008
:104FB0002BFC0D4B94F87610A3FB00235B0AAA6828
:104FC000C3EB0323A0EB8300831800222046AB60D1
:104FD00003B0BDE8F040FFF793BA2822314601F054
:104FE00069FEDCE7740E00208180808038B52E4D8C
:104FF000B0F84830AA7C01330446A0F84830B2B972
:1050000000232B7194F881305BB9637C1BB1B4F839
:1050100048209A4212D220460021BDE8384003F0D1
:1050200023B920460121BDE8384003F01DB909F03D
:1050300075F807F037FD0023AB74E1E70121204646
:1050400003F012F96388DB070FD5236A1D8804F08B
:1050500087FC68B9637C217884F8B8104322A4F8EF
:10506000B95084F8B720A3B111E004F079FC00B185
:1050700038BD637C207884F8B8004FF0FF324321BC
:1050800084F8B92084F8BA2084F8B7100BB194F8EA
:10509000483084F8BB3004F1AE000449BDE8384024
:1050A000022210F093BE00BF740E0020A140000049
:1050B00060B951B1074A1379916AD06A096903F15D
:1050C0008043043B51F8233018477047014BD86A9E
:1050D000FFF78CBF740E00202DE9F047032984B040
:1050E00013D005290BD17E4B1B68002B62D098474B
:1050F00080F00100C0B204B0BDE8F0872046FFF7A1
:1051000075FF002004B0BDE8F08708230DF103020D
:1051100004468DF80330FFF713F90028EED0237C06
:10512000002B40F095806F4D678828680026BB09EA
:10513000068007214FF0010863F3861810F041FB49
:105140003146286810F0B1FC04F16909324628683C
:10515000414610F0B1FC324606232868494610F05B
:105160007AFC94F86810286810F05BFB286810F04F
:10517000EDFCB4F85C30C0F1FE008342B4BFDEB297
:10518000C6B2B342C7F380171FFA86FA14D8002FAD
:105190007FD1A16D2868324610F0C2FCA5F810A09E
:1051A0006179FF2008F032F8082328682B7108F095
:1051B000FDFEA6E718469EE748F0100A5146002279
:1051C000286810F079FC286810F06BFCB4F84830BF
:1051D000EA681A44B4F84031A6F103081A44023EC2
:1051E0000644494692B204F1360010F04DFAF6B288
:1051F000617984F84400334601222046FEF75AFDC7
:105200008DF80C00C0F30723C0F307408DF80E00A3
:105210008DF80D30039BADF808301B0C8DF80A306B
:10522000029BADF8043004221B0C0DEB0201286830
:105230008DF80630032310F00EFC5FFA88F8514613
:105240002868002210F038FC1FFA88FA46469EE7CC
:105250009DF8030094F8D030002B7FF464AF2378DE
:1052600084F8D130082824D004F1D30204F1D2010B
:1052700004F0E4FD70B394F8D2301A4D43F0020309
:1052800084F8D2301849022204F1C80010F09EFDC3
:105290004AE794F9142094F84410607910F0A2F9C8
:1052A00001238DF808000622286802A910F0D3FB1C
:1052B0006FE70C4D29680B4613F8032BC2F38012DD
:1052C00084F8D220D1F80320C4F8D3209B88A4F816
:1052D000D730D7E740F6BA712D20FCF7F7FA00BFB8
:1052E00064000020740E0020CD3700002DE9F0414D
:1052F00082B008230DF10702052104468DF807301E
:10530000FFF71EF800286BD06279216A2046FEF76D
:1053100033FD216A002384F88D300888A4F88E00BC
:105320004FF6FF73FF2284F8AB20A4F8AC309DF851
:1053300007202046FEF754FE236A2D4A1988156877
:10534000A4F8C51093F8CD2084F8C72025B11846DD
:1053500001222146A847236A264D2868D0F8032059
:10536000C3F80320B0F80720A3F807200678D4F884
:1053700020800027C6F3801688F802600821078085
:1053800010F01FFA2868394610F08FFB28683A465B
:105390004FF0030110F090FB3A460623286804F111
:1053A000690110F058FB94F86810286810F039FA79
:1053B0002868314610F03EFA06230122286808F1D9
:1053C000030110F048FB6179FF2007F01FFF2868F8
:1053D00008F0ECFD092301202B7102B0BDE8F0813B
:1053E0002046FFF703FE012002B0BDE8F08100BFB8
:1053F0006C000020740E0020F0B54D4C2379022B78
:1054000085B003D02379032B40F08680E36A1D6AC0
:105410000DB195F8755088B9A37C1BB108F07EFEDC
:1054200007F040FBE06A02F045FD40B308F092F956
:10543000A36A9B6805B0BDE8F0401847216893F85F
:10544000682011F8096B6933F0090FF032FF00286A
:10545000E2D006F00F06052E206827D0294610F06E
:105460000FFA0028D8D02379E06A022B0DD02379D7
:10547000032B0AD040F6C5412D20FCF727FAE06A3D
:1054800005B0BDE8F040FFF7B1BD2379A26A03F192
:1054900080435269023B314652F823309847A37C3F
:1054A000002B3ED10028BDD105B0F0BD90F82430CE
:1054B00003F01F03102BD1D9E76AFB7C002BCDD062
:1054C00008230DF10F02314638468DF80F30FEF7F4
:1054D00037FF0028A0D097F8E130002B9CD121683D
:1054E00007F1E202CB1C23311E685D689868D3F88F
:1054F0000CC0C2F80CC010338B421660556090602F
:1055000002F11002F0D11B8813800A49022207F130
:10551000D90010F05BFC7FE740F6EC412D20FCF752
:10552000D5F9019008F0FAFD07F0BCFA0198B9E747
:10553000740E0020E53700002DE9F04104460E46C8
:10554000002940F08E80704D286894F87670002312
:1055500003806388103B0D2B00F2C780DFE803F067
:105560007CC5771EC507C5C5C5C5C5C5C50701210D
:1055700010F027F92868037823F0200343F0200374
:105580000370002F00F0948004F1770110F042F9CD
:105590002868012110F04EF9286809E0002110F078
:1055A00010F92868037823F0200343F020030370E8
:1055B00004F1690110F027F994F86810286810F0D8
:1055C00030F9638823F008039BB2152B05D094F8BB
:1055D0005420216D286810F034F9286808F0E6FCA2
:1055E00004232B71F6B16388102B6CD004F13008C2
:1055F0004046EF6801F0F0FA0646404601F0C8FA6E
:10560000013E301A61882822C0B201F07DFB638818
:105610001B0707445CD422793946002008F0F8FAC9
:1056200000286CD06388103B0D2B63D8DFE803F0B3
:105630000D62070762076262626262626207217935
:105640000120BDE8F04108F083BDBDE8F0810621EE
:1056500010F0B7F82868ABE7022110F0B2F828681C
:10566000A6E700F13007384601F092FAA8B963883E
:105670001A0735D5384601F0AFFA0546384601F02D
:1056800087FA281AC0B2204D01F038FBAB680344FA
:105690003846AB6001F008FA00E01B4D384601F0D7
:1056A00009FA07F079FF2179252007F0AFFD4BE7D4
:1056B00004F1700110F0AEF8286894F86F1010F043
:1056C000B9F8286874E72179002007F073FFA9E78B
:1056D000AB681F4401F0EAFA3844C4F818019AE7AD
:1056E0002046BDE8F041FFF781BC40F249612D2022
:1056F000FCF7ECF840F675512D20FCF7E7F840F682
:1057000061512D20FCF7E2F8740E002038B5438873
:10571000102B1FD0124DAB7C044663B9286808F0EB
:1057200045FC608810F004000BD0002008F0A8FCB5
:1057300002232B7138BD07F097F9402008F0E2FCF6
:10574000ECE7217908F004FD002008F099FC022321
:105750002B7138BDBDE838400121FFF7EDBE00BF19
:10576000740E00200121FFF7E7BE00BF0121FFF703
:10577000E3BE00BF38B543889A0704460CD4DB0764
:105780000AD41C4AB0F85430128A9A422DD0BDE88F
:1057900038400121FFF7BCBA00206179154D08F0AF
:1057A000D7FC6388617913F0020F14BF0C2022200C
:1057B00007F02CFDAB7C03222A715BB9607910F0F5
:1057C0000C0018BF282008F05BFC2868BDE83840B2
:1057D00008F0ECBB07F048F9637913F00C0F14BF25
:1057E0004520402008F08EFCE8E7BDE83840FFF790
:1057F000FDBB00BF740E002010B5164CA37CF3B99E
:10580000E06A02F057FBA8B1E06A438803F018038E
:105810008BB12379022B02D02379032B14D1237966
:10582000A26A03F18043D268023BBDE8104052F8FF
:1058300023301847E06ABDE81040FFF7D7BB08F0F7
:105840006DFC07F02FF9DBE740F6F4312D20FCF773
:105850003DF800BF740E002030B50B6883B0002BFC
:1058600051D00C460546184601F0B6F994F810E000
:10587000627CBEF1040F3BD0254B264933F81E3025
:10588000042A03F2E73323D0A1FB03134FEA931C4E
:10589000BEF1080F00F1FF334FEAC31325D0BEF16C
:1058A000020F14BFF0216021634401FB0031A38883
:1058B000009328460023FDF7DBFFD4E90223D7300D
:1058C000824273F100032CBF0120002003B030BDE1
:1058D000A1FB03234FEA931CBEF1080F00F1FF3335
:1058E0004FF008024FEAC313D9D14FF4D261DBE77E
:1058F000431E042A4FEAC3134FF02C0CF5D10822A3
:105900004FF4D261D0E740F2FD312D20FBF7DEFFEE
:1059100064410400D34D62102DE9F04F90F88030BF
:1059200087B0002B3DD1458815F00105044638D0DD
:10593000774E03F0FF0AB37C002B40F0C68031683D
:1059400011F8030BC0F3801010F06BFE4FF0080944
:105950008346316894F86F2011F8030B04F170034B
:10596000C0F380100FF0A5FC3168074611F8030B57
:10597000C0F380100FF0C8FC804604F005FB0190D6
:1059800018B1B8F1080F40F08680B9F1080F00F0A7
:10599000AF80638857B95A0740F18A80E37F4B454F
:1059A00006D00025284607B0BDE8F08F5B077FD5FD
:1059B0003168584B11F8030B96F82020C0F3801083
:1059C0000FF077FC07460028EBD1216A33681A787C
:1059D00091F8CD3003EA521303F0010381F8CD3082
:1059E00001222046FEF7C8F9216A84F88D70FF2352
:1059F000088884F8AB304FF6FF73A4F8AC304A4601
:105A0000A4F88E002046FEF7EBFA4349022204F187
:105A1000840010F0DBF9236A40491A88A4F8C520F5
:105A200093F8CD3084F8C730022204F1BC0010F0A6
:105A3000CDF9236A1F8803F093FF88B9637C22782D
:105A4000A4F8B97084F8B70084F8B820002B56D1B8
:105A5000334984F8BB30022204F1AE0010F0B6F9ED
:105A6000304B1B680022327113B1206A21469847DF
:105A70003368226AD3F80310C2F80310B3F8071092
:105A8000A2F807101B78226AC3F38013284693708C
:105A900007B0BDE8F08F404604F09AF9019B00285A
:105AA0007FF473AFB9F1080F3FF47BAF9A4670E70C
:105AB000BAF1000F7FF475AFBBF1000F7FF478AF40
:105AC000637D012B3FF66DAF72E70FF027FC0828CE
:105AD00081463FF434AF04AA0DF10F0104F0AEF992
